{
  "_format": "hh-sol-artifact-1",
  "contractName": "CrowdFunding",
  "sourceName": "contracts/CrowdFunding.sol",
  "abi": [
    {
      "inputs": [
        {
          "internalType": "uint256",
          "name": "",
          "type": "uint256"
        }
      ],
      "name": "campaigns",
      "outputs": [
        {
          "internalType": "address",
          "name": "owner",
          "type": "address"
        },
        {
          "internalType": "string",
          "name": "title",
          "type": "string"
        },
        {
          "internalType": "string",
          "name": "description",
          "type": "string"
        },
        {
          "internalType": "uint256",
          "name": "target",
          "type": "uint256"
        },
        {
          "internalType": "uint256",
          "name": "deadline",
          "type": "uint256"
        },
        {
          "internalType": "uint256",
          "name": "amountCollected",
          "type": "uint256"
        }
      ],
      "stateMutability": "view",
      "type": "function"
    },
    {
      "inputs": [
        {
          "internalType": "address",
          "name": "_owner",
          "type": "address"
        },
        {
          "internalType": "string",
          "name": "_title",
          "type": "string"
        },
        {
          "internalType": "string",
          "name": "_description",
          "type": "string"
        },
        {
          "internalType": "uint256",
          "name": "_target",
          "type": "uint256"
        },
        {
          "internalType": "uint256",
          "name": "_deadline",
          "type": "uint256"
        }
      ],
      "name": "createCampaign",
      "outputs": [
        {
          "internalType": "uint256",
          "name": "",
          "type": "uint256"
        }
      ],
      "stateMutability": "nonpayable",
      "type": "function"
    },
    {
      "inputs": [
        {
          "internalType": "uint256",
          "name": "_id",
          "type": "uint256"
        }
      ],
      "name": "donateToCampaign",
      "outputs": [],
      "stateMutability": "payable",
      "type": "function"
    },
    {
      "inputs": [],
      "name": "getCampaigns",
      "outputs": [
        {
          "components": [
            {
              "internalType": "address",
              "name": "owner",
              "type": "address"
            },
            {
              "internalType": "string",
              "name": "title",
              "type": "string"
            },
            {
              "internalType": "string",
              "name": "description",
              "type": "string"
            },
            {
              "internalType": "uint256",
              "name": "target",
              "type": "uint256"
            },
            {
              "internalType": "uint256",
              "name": "deadline",
              "type": "uint256"
            },
            {
              "internalType": "uint256",
              "name": "amountCollected",
              "type": "uint256"
            },
            {
              "internalType": "address[]",
              "name": "donators",
              "type": "address[]"
            },
            {
              "internalType": "uint256[]",
              "name": "donations",
              "type": "uint256[]"
            }
          ],
          "internalType": "struct CrowdFunding.Campaign[]",
          "name": "",
          "type": "tuple[]"
        }
      ],
      "stateMutability": "view",
      "type": "function"
    },
    {
      "inputs": [
        {
          "internalType": "uint256",
          "name": "_id",
          "type": "uint256"
        }
      ],
      "name": "getDonators",
      "outputs": [
        {
          "internalType": "address[]",
          "name": "",
          "type": "address[]"
        },
        {
          "internalType": "uint256[]",
          "name": "",
          "type": "uint256[]"
        }
      ],
      "stateMutability": "view",
      "type": "function"
    },
    {
      "inputs": [],
      "name": "numberOfCampaigns",
      "outputs": [
        {
          "internalType": "uint256",
          "name": "",
          "type": "uint256"
        }
      ],
      "stateMutability": "view",
      "type": "function"
    },
    {
      "inputs": [
        {
          "internalType": "address",
          "name": "to",
          "type": "address"
        }
      ],
      "name": "send",
      "outputs": [],
      "stateMutability": "payable",
      "type": "function"
    }
  ],
  "bytecode": "0x6080604052600060015534801561001557600080fd5b50610e83806100256000396000f3fe6080604052600436106100705760003560e01c8063141961bc1161004e578063141961bc146100ec5780633e58c58c1461011e57806342a4fda814610133578063a6b036331461014657600080fd5b8063075843c31461007557806307ca140d146100a85780630fa91fa9146100be575b600080fd5b34801561008157600080fd5b50610095610090366004610a56565b610168565b6040519081526020015b60405180910390f35b3480156100b457600080fd5b5061009560015481565b3480156100ca57600080fd5b506100de6100d9366004610adc565b61026e565b60405161009f929190610af5565b3480156100f857600080fd5b5061010c610107366004610adc565b61033d565b60405161009f96959493929190610bc6565b61013161012c366004610c1b565b61048c565b005b610131610141366004610adc565b610528565b34801561015257600080fd5b5061015b6105ea565b60405161009f9190610cb1565b6001546000908152602081905260408120600481015442116101e65760405162461bcd60e51b815260206004820152602c60248201527f54686520646561646c696e652073686f756c642062652061206461746520696e60448201526b103a343290333aba3ab9329760a11b60648201526084015b60405180910390fd5b80546001600160a01b0319166001600160a01b038816178155855161021490600183019060208901906108fe565b50845161022a90600283019060208801906108fe565b506003810184905560048101839055600060058201819055600180549161025083610db8565b9190505550600180546102639190610dd3565b979650505050505050565b600081815260208181526040918290206006810180548451818502810185019095528085526060948594929360070192909184918301828280156102db57602002820191906000526020600020905b81546001600160a01b031681526001909101906020018083116102bd575b505050505091508080548060200260200160405190810160405280929190818152602001828054801561032d57602002820191906000526020600020905b815481526020019060010190808311610319575b5050505050905091509150915091565b600060208190529081526040902080546001820180546001600160a01b03909216929161036990610dea565b80601f016020809104026020016040519081016040528092919081815260200182805461039590610dea565b80156103e25780601f106103b7576101008083540402835291602001916103e2565b820191906000526020600020905b8154815290600101906020018083116103c557829003601f168201915b5050505050908060020180546103f790610dea565b80601f016020809104026020016040519081016040528092919081815260200182805461042390610dea565b80156104705780601f1061044557610100808354040283529160200191610470565b820191906000526020600020905b81548152906001019060200180831161045357829003601f168201915b5050505050908060030154908060040154908060050154905086565b6000816001600160a01b03163460405160006040518083038185875af1925050503d80600081146104d9576040519150601f19603f3d011682016040523d82523d6000602084013e6104de565b606091505b50509050806105245760405162461bcd60e51b815260206004820152601260248201527108cc2d2d8cac840e8de40e6cadcc8408aa8960731b60448201526064016101dd565b5050565b600081815260208181526040808320600681018054600180820183559186528486200180546001600160a01b0319163317905560078201805491820181558552928420349301839055805491519293909290916001600160a01b03169084908381818185875af1925050503d80600081146105bf576040519150601f19603f3d011682016040523d82523d6000602084013e6105c4565b606091505b5050905080156105e4578282600501546105de9190610e1f565b60058301555b50505050565b6060600060015467ffffffffffffffff811115610609576106096109b3565b60405190808252806020026020018201604052801561068b57816020015b61067860405180610100016040528060006001600160a01b03168152602001606081526020016060815260200160008152602001600081526020016000815260200160608152602001606081525090565b8152602001906001900390816106275790505b50905060005b6001548110156108f857600081815260208181526040918290208251610100810190935280546001600160a01b03168352600181018054919392849290840191906106db90610dea565b80601f016020809104026020016040519081016040528092919081815260200182805461070790610dea565b80156107545780601f1061072957610100808354040283529160200191610754565b820191906000526020600020905b81548152906001019060200180831161073757829003601f168201915b5050505050815260200160028201805461076d90610dea565b80601f016020809104026020016040519081016040528092919081815260200182805461079990610dea565b80156107e65780601f106107bb576101008083540402835291602001916107e6565b820191906000526020600020905b8154815290600101906020018083116107c957829003601f168201915b505050505081526020016003820154815260200160048201548152602001600582015481526020016006820180548060200260200160405190810160405280929190818152602001828054801561086657602002820191906000526020600020905b81546001600160a01b03168152600190910190602001808311610848575b50505050508152602001600782018054806020026020016040519081016040528092919081815260200182805480156108be57602002820191906000526020600020905b8154815260200190600101908083116108aa575b5050505050815250508383815181106108d9576108d9610e37565b60200260200101819052505080806108f090610db8565b915050610691565b50919050565b82805461090a90610dea565b90600052602060002090601f01602090048101928261092c5760008555610972565b82601f1061094557805160ff1916838001178555610972565b82800160010185558215610972579182015b82811115610972578251825591602001919060010190610957565b5061097e929150610982565b5090565b5b8082111561097e5760008155600101610983565b80356001600160a01b03811681146109ae57600080fd5b919050565b634e487b7160e01b600052604160045260246000fd5b600082601f8301126109da57600080fd5b813567ffffffffffffffff808211156109f5576109f56109b3565b604051601f8301601f19908116603f01168101908282118183101715610a1d57610a1d6109b3565b81604052838152866020858801011115610a3657600080fd5b836020870160208301376000602085830101528094505050505092915050565b600080600080600060a08688031215610a6e57600080fd5b610a7786610997565b9450602086013567ffffffffffffffff80821115610a9457600080fd5b610aa089838a016109c9565b95506040880135915080821115610ab657600080fd5b50610ac3888289016109c9565b9598949750949560608101359550608001359392505050565b600060208284031215610aee57600080fd5b5035919050565b604080825283519082018190526000906020906060840190828701845b82811015610b375781516001600160a01b031684529284019290840190600101610b12565b5050508381038285015284518082528583019183019060005b81811015610b6c57835183529284019291840191600101610b50565b5090979650505050505050565b6000815180845260005b81811015610b9f57602081850181015186830182015201610b83565b81811115610bb1576000602083870101525b50601f01601f19169290920160200192915050565b6001600160a01b038716815260c060208201819052600090610bea90830188610b79565b8281036040840152610bfc8188610b79565b60608401969096525050608081019290925260a0909101529392505050565b600060208284031215610c2d57600080fd5b610c3682610997565b9392505050565b600081518084526020808501945080840160005b83811015610c765781516001600160a01b031687529582019590820190600101610c51565b509495945050505050565b600081518084526020808501945080840160005b83811015610c7657815187529582019590820190600101610c95565b60006020808301818452808551808352604092508286019150828160051b87010184880160005b83811015610d9457888303603f19018552815180516001600160a01b0316845261010088820151818a870152610d1082870182610b79565b9150508782015185820389870152610d288282610b79565b606084810151908801526080808501519088015260a0808501519088015260c080850151888303828a01529193509150610d628382610c3d565b9250505060e08083015192508582038187015250610d808183610c81565b968901969450505090860190600101610cd8565b509098975050505050505050565b634e487b7160e01b600052601160045260246000fd5b6000600019821415610dcc57610dcc610da2565b5060010190565b600082821015610de557610de5610da2565b500390565b600181811c90821680610dfe57607f821691505b602082108114156108f857634e487b7160e01b600052602260045260246000fd5b60008219821115610e3257610e32610da2565b500190565b634e487b7160e01b600052603260045260246000fdfea26469706673582212202e5168d5665f8688b8c5b0adc925f0d8ee8c621253b4c46cd808412bfc6033f464736f6c63430008090033",
  "linkReferences": {},
  "deployedLinkReferences": {}
}